{
  "contractName": "ToDo",
  "abi": [
    {
      "constant": true,
      "inputs": [
        {
          "name": "",
          "type": "uint256"
        }
      ],
      "name": "tasks",
      "outputs": [
        {
          "name": "id",
          "type": "uint256"
        },
        {
          "name": "date",
          "type": "uint256"
        },
        {
          "name": "content",
          "type": "string"
        },
        {
          "name": "author",
          "type": "string"
        },
        {
          "name": "done",
          "type": "bool"
        }
      ],
      "payable": false,
      "stateMutability": "view",
      "type": "function",
      "signature": "0x8d977672"
    },
    {
      "inputs": [],
      "payable": false,
      "stateMutability": "nonpayable",
      "type": "constructor",
      "signature": "constructor"
    },
    {
      "anonymous": false,
      "inputs": [
        {
          "indexed": false,
          "name": "",
          "type": "uint256"
        },
        {
          "indexed": false,
          "name": "",
          "type": "uint256"
        },
        {
          "indexed": false,
          "name": "",
          "type": "string"
        },
        {
          "indexed": false,
          "name": "",
          "type": "string"
        },
        {
          "indexed": false,
          "name": "",
          "type": "bool"
        }
      ],
      "name": "CreateTask",
      "type": "event",
      "signature": "0x1e3881e13dd1f9f4074a664cb5ec01ae831747a49d340ed5a3208b8b5562583b"
    },
    {
      "constant": false,
      "inputs": [
        {
          "name": "_content",
          "type": "string"
        },
        {
          "name": "_author",
          "type": "string"
        }
      ],
      "name": "createTask",
      "outputs": [],
      "payable": false,
      "stateMutability": "nonpayable",
      "type": "function",
      "signature": "0x292a4585"
    },
    {
      "constant": true,
      "inputs": [
        {
          "name": "_id",
          "type": "uint256"
        }
      ],
      "name": "getTask",
      "outputs": [
        {
          "name": "",
          "type": "uint256"
        },
        {
          "name": "",
          "type": "uint256"
        },
        {
          "name": "",
          "type": "string"
        },
        {
          "name": "",
          "type": "string"
        },
        {
          "name": "",
          "type": "bool"
        }
      ],
      "payable": false,
      "stateMutability": "view",
      "type": "function",
      "signature": "0x1d65e77e"
    },
    {
      "constant": true,
      "inputs": [],
      "name": "getTaskIds",
      "outputs": [
        {
          "name": "",
          "type": "uint256[]"
        }
      ],
      "payable": false,
      "stateMutability": "view",
      "type": "function",
      "signature": "0xbcd14805"
    }
  ],
  "bytecode": "0x608060405234801561001057600080fd5b5060008081905550610bb7806100276000396000f3fe608060405260043610610062576000357c0100000000000000000000000000000000000000000000000000000000900463ffffffff1680631d65e77e14610067578063292a4585146101a05780638d977672146102ff578063bcd1480514610438575b600080fd5b34801561007357600080fd5b506100a06004803603602081101561008a57600080fd5b81019080803590602001909291905050506104a4565b60405180868152602001858152602001806020018060200184151515158152602001838103835286818151815260200191508051906020019080838360005b838110156100fa5780820151818401526020810190506100df565b50505050905090810190601f1680156101275780820380516001836020036101000a031916815260200191505b50838103825285818151815260200191508051906020019080838360005b83811015610160578082015181840152602081019050610145565b50505050905090810190601f16801561018d5780820380516001836020036101000a031916815260200191505b5097505050505050505060405180910390f35b3480156101ac57600080fd5b506102fd600480360360408110156101c357600080fd5b81019080803590602001906401000000008111156101e057600080fd5b8201836020820111156101f257600080fd5b8035906020019184600183028401116401000000008311171561021457600080fd5b91908080601f016020809104026020016040519081016040528093929190818152602001838380828437600081840152601f19601f8201169050808301925050505050505091929192908035906020019064010000000081111561027757600080fd5b82018360208201111561028957600080fd5b803590602001918460018302840111640100000000831117156102ab57600080fd5b91908080601f016020809104026020016040519081016040528093929190818152602001838380828437600081840152601f19601f8201169050808301925050505050505091929192905050506106f0565b005b34801561030b57600080fd5b506103386004803603602081101561032257600080fd5b810190808035906020019092919050505061091b565b60405180868152602001858152602001806020018060200184151515158152602001838103835286818151815260200191508051906020019080838360005b83811015610392578082015181840152602081019050610377565b50505050905090810190601f1680156103bf5780820380516001836020036101000a031916815260200191505b50838103825285818151815260200191508051906020019080838360005b838110156103f85780820151818401526020810190506103dd565b50505050905090810190601f1680156104255780820380516001836020036101000a031916815260200191505b5097505050505050505060405180910390f35b34801561044457600080fd5b5061044d610a8e565b6040518080602001828103825283818151815260200191508051906020019060200280838360005b83811015610490578082015181840152602081019050610475565b505050509050019250505060405180910390f35b600080606080600085600060026000838152602001908152602001600020600001541415151561053c576040517f08c379a000000000000000000000000000000000000000000000000000000000815260040180806020018281038252600c8152602001807f496e76616c6964205461736b000000000000000000000000000000000000000081525060200191505060405180910390fd5b866002600089815260200190815260200160002060010154600260008a8152602001908152602001600020600201600260008b8152602001908152602001600020600301600260008c815260200190815260200160002060040160009054906101000a900460ff16828054600181600116156101000203166002900480601f0160208091040260200160405190810160405280929190818152602001828054600181600116156101000203166002900480156106395780601f1061060e57610100808354040283529160200191610639565b820191906000526020600020905b81548152906001019060200180831161061c57829003601f168201915b50505050509250818054600181600116156101000203166002900480601f0160208091040260200160405190810160405280929190818152602001828054600181600116156101000203166002900480156106d55780601f106106aa576101008083540402835291602001916106d5565b820191906000526020600020905b8154815290600101906020018083116106b857829003601f168201915b50505050509150955095509550955095505091939590929450565b600080815480929190600101919050555060a060405190810160405280600054815260200142815260200183815260200182815260200160001515815250600260008054815260200190815260200160002060008201518160000155602082015181600101556040820151816002019080519060200190610772929190610ae6565b50606082015181600301908051906020019061078f929190610ae6565b5060808201518160040160006101000a81548160ff021916908315150217905550905050600160005490806001815401808255809150509060018203906000526020600020016000909192909190915055507f1e3881e13dd1f9f4074a664cb5ec01ae831747a49d340ed5a3208b8b5562583b6000808154809291906001900391905055428484600060405180868152602001858152602001806020018060200184151515158152602001838103835286818151815260200191508051906020019080838360005b83811015610872578082015181840152602081019050610857565b50505050905090810190601f16801561089f5780820380516001836020036101000a031916815260200191505b50838103825285818151815260200191508051906020019080838360005b838110156108d85780820151818401526020810190506108bd565b50505050905090810190601f1680156109055780820380516001836020036101000a031916815260200191505b5097505050505050505060405180910390a15050565b6002602052806000526040600020600091509050806000015490806001015490806002018054600181600116156101000203166002900480601f0160208091040260200160405190810160405280929190818152602001828054600181600116156101000203166002900480156109d35780601f106109a8576101008083540402835291602001916109d3565b820191906000526020600020905b8154815290600101906020018083116109b657829003601f168201915b505050505090806003018054600181600116156101000203166002900480601f016020809104026020016040519081016040528092919081815260200182805460018160011615610100020316600290048015610a715780601f10610a4657610100808354040283529160200191610a71565b820191906000526020600020905b815481529060010190602001808311610a5457829003601f168201915b5050505050908060040160009054906101000a900460ff16905085565b60606001805480602002602001604051908101604052809291908181526020018280548015610adc57602002820191906000526020600020905b815481526020019060010190808311610ac8575b5050505050905090565b828054600181600116156101000203166002900490600052602060002090601f016020900481019282601f10610b2757805160ff1916838001178555610b55565b82800160010185558215610b55579182015b82811115610b54578251825591602001919060010190610b39565b5b509050610b629190610b66565b5090565b610b8891905b80821115610b84576000816000905550600101610b6c565b5090565b9056fea165627a7a72305820b6dbe9ac4e33b6edc399aad4fde427097cb5b3b1544766d8f32eaae4d07f8e530029",
  "source": "pragma solidity ^0.5.0;\n\ncontract ToDo {\n\n    //@title This contract is to create structure of task and includes functions for CRUD\n    //@author Medha Pandey\n\n    event CreateTask(uint ,uint ,string ,string ,bool );\n  \n    struct Task{\n        uint id;\n        uint date;\n        string content;\n        string author;\n        bool done;\n    }\n\n    uint lastTaskId;\n    uint[] taskIds ;\n    mapping(uint => Task) public tasks;\n\n    //@constructor\n\n    constructor()public{\n        lastTaskId = 0;\n    }\n\n    //@modifier\n\n    modifier taskExists(uint _id){\n        require(tasks[_id].id != 0,\"Invalid Task\");\n        _;\n    }\n\n    //@dev Create new Task\n    function createTask(string memory _content, string memory _author) public{\n        lastTaskId++;\n        tasks[lastTaskId] = Task(lastTaskId,block.timestamp,_content,_author,false);\n        taskIds.push(lastTaskId);\n        emit CreateTask(lastTaskId--,block.timestamp,_content,_author,false);\n    }\n\n    //@dev Get a task\n    function getTask(uint _id) public view taskExists(_id)\n    returns(\n        uint,\n        uint,\n        string memory,\n        string memory,\n        bool \n    ){\n        return(_id,tasks[_id].date,tasks[_id].content,tasks[_id].author,tasks[_id].done);\n    }\n\n    //@dev Get all TaskId's for getting all tasks from frontend via getTask func\n    function getTaskIds()public view returns(uint[] memory){\n        return taskIds;\n    } \n\n   \n}\n",
  "sourcePath": "/home/medha/Desktop/Dapps/EthToDo/contracts/ToDo.sol",
  "compiler": {
    "name": "solc",
    "version": "0.5.0+commit.1d4f565a.Emscripten.clang"
  },
  "schemaVersion": "3.0.2",
  "updatedAt": "2019-03-08T04:39:09.516Z",
  "devdoc": {
    "methods": {}
  },
  "userdoc": {
    "methods": {}
  }
}